:1000000078C1000092C1000090C10000C2C200008F
:10001000E3C200008AC1000088C1000086C1000060
:1000200084C10000FCC200000C94920C7EC1000050
:100030007CC100007AC1000078C1000076C10000D8
:1000400074C1000072C1000070C100006EC10000E8
:100050006CC100006AC1000068C1000066C10000F8
:1000600064C1000062C1000060C100005EC1000008
:100070005CC100005AC1000058C1000056C1000018
:1000800054C1000052C1000050C100004EC1000028
:100090004CC100004AC1000048C1000046C1000038
:1000A00044C1000042C1000040C10000DF01BD01A9
:1000B000BF01C101C301C501C701C901CB01CD0108
:1000C000CF01D101D301D501D701DB01DB01DB0178
:1000D000DB01DB01DB01DB01DB01DB01DB01D90142
:1000E0009A02A002A502A002A502A5029A029A0203
:1000F000A502A502A002A502A0029A02A205AA05D5
:100100001B06B205F005020636062F0627061F0657
:100110006C086C08FD088E08BE08DF08FB080B0998
:10012000FD08FD087C0DA70D9B0EA70D9B0EEA0D8B
:100130000D0E9B0E660E760E00000000003E51492B
:10014000453E00427F400042615149462141454BB6
:10015000311814127F1027454545393C4A4949302A
:1001600001710905033649494936064949291E7E68
:100170001111117E7F494949363E414141227F415B
:1001800041221C7F494949417F090909013E4149F2
:10019000497A7F0808087F00417F41002040413FA5
:1001A000017F081422417F404040407F020C027FC3
:1001B0007F0408107F3E4141413E7F090909063E08
:1001C0004151215E7F0919294646494949310101BA
:1001D0007F01013F4040403F1F2040201F7F2018EB
:1001E000207F6314081463070870080761514945AC
:1001F0004300005F00000007000700147F147F1415
:10020000242A7F2A1223130864623649552250009B
:1002100005030000001C2241000041221C001408BC
:100220003E081408083E080800503000000808087E
:100230000808006060000020100804020036360044
:1002400000420342006F007400610065006D0069A8
:100250000063002000550053004200200053006F4F
:100260000075006E00640043006F006E0074007241
:10027000006F006C006C00650072002000480049AF
:100280000044000000120342006F0074006100652A
:10029000006D0069006300000004030904090222E4
:1002A00000010100C0320904000001030000000940
:1002B0002111010001222000070581032000051201
:1002C00001100100000008EB0301240100010200FD
:1002D000010600FF0901A1010902150025FF7508AB
:1002E000952081020903150025FF750895209102CC
:1002F000C00011241FBECFEFDAE0DEBFCDBF11E09A
:10030000A0E0B1E0E4E5F2E202C005900D92A8356C
:10031000B107D9F722E0A8E5B1E001C01D92A532EE
:10032000B207E1F7E4D40C9428116ACEE82F8032AA
:1003300009F443C080ED8E0F8A3018F481ED8E0FE2
:1003400008958FEB8E0F8A3118F48AEC8E0F089582
:100350008FE98E0F8A3118F48AEA8E0F08958E2F56
:10036000EE0F990BAA0BBB0BFC01B197EA31F1051B
:1003700010F5EA5AFF4F0C94F61086E2089587E2D2
:10038000089588E2089589E208958AE208958BE24B
:1003900008958CE208958DE208958EE208958FE22B
:1003A000089580E3089581E3089582E3089583E347
:1003B000089584E3089580E0089580E0089585E23B
:1003C00008951092B90082E08093B80084E0809391
:1003D000BC00089584EA8093BC00ECEBF0E08081DF
:1003E0008823ECF7089584E98093BC0008958093F6
:1003F000BB0084E88093BC00ECEBF0E080818823B4
:10040000ECF7089582E4E6EDF1E0DF011D928A95B4
:10041000E9F787E0E1E1F1E0A6EDB1E001900D92AE
:100420008A95E1F786E0E8E1F1E0A1EEB1E0019024
:100430000D928A95E1F786E0EEE1F1E0ACEEB1E0F5
:1004400001900D928A95E1F786E0E4E2F1E0A7EFF2
:10045000B1E001900D928A95E1F786E0EAE2F1E0E1
:10046000A2E0B2E001900D928A95E1F786E0E0E328
:10047000F1E0ADE0B2E001900D928A95E1F7E0ED98
:10048000F1E08BE48083818382838383848385830B
:1004900010925B0110925A0110925901109258016A
:1004A000089539B129B132FB882780F990E0880F8F
:1004B000991F23FB992790F9892B08958AB1837F8F
:1004C0008AB98BB18C608BB924982C9AEADF80931F
:1004D0005D0183B18295817080930001E9E6F0E0CF
:1004E00080818F7580838081806580838DB38C60EF
:1004F0008DBBE8E6F0E0808181608083EBE6F0E090
:1005000080818061808378940895CBDF40915D0184
:10051000440F440FE42FE82B4E2FEE0F550B660BC4
:10052000770BFA013197EE30F10578F4E059FF4F7F
:100530000C94F61090915C019F5F90935C0105C054
:1005400090915C01915090935C0181111FC090913A
:100550005C0119165CF420915F01309160012F5FFE
:100560003F4F3093600120935F010EC090915C017A
:10057000992354F420915F01309160012150310999
:100580003093600120935F0110925C0180935D01C4
:1005900008951F920F920FB60F9211242F933F933D
:1005A0004F935F936F937F938F939F93AF93BF937B
:1005B000EF93FF93AADFFF91EF91BF91AF919F91CE
:1005C0008F917F916F915F914F913F912F910F90FC
:1005D0000FBE0F901F9018951F920F920FB60F929B
:1005E00011242F933F934F935F936F937F938F9338
:1005F0009F93AF93BF93EF93FF9387DFFF91EF91AB
:10060000BF91AF919F918F917F916F915F914F912A
:100610003F912F910F900FBE0F901F9018951F9232
:100620000F920FB60F9211242F938F939F9383B144
:1006300091E0282F207184FF90E0809100018130AB
:1006400021F4211102C080935E01909300019F91DB
:100650008F912F910F900FBE0F901F9018952F9292
:100660003F924F925F926F927F928F929F92AF9242
:10067000BF92CF92DF92EF92FF920F931F93CF938F
:10068000DF93CDB7DEB76B970FB6F894DEBF0FBE22
:10069000CDBF262E498F4ADE9E012F5F3F4F790145
:1006A0008E01035F1F4F6801D801F90111921D925D
:1006B000EC15FD05D9F790E02C01440C551C440CB9
:1006C000551C840D951DFC01E85CFE4F2F0148016F
:1006D000370170E0A1E0B0E0753018F4F201A490A9
:1006E00001C0A12C40E050E021E030E080E090E04B
:1006F000312C60E0B12CF501082E02C0F595E7958C
:100700000A94E2F7E0FF33C0483048F4FD01042EBC
:1007100002C0EE0FFF1F0A94E2F76E2B0EC0F90124
:100720003997FB8FEA8FFD010A8C02C0EE0FFF1F85
:100730000A94E2F7FB8FEA8F3E2A283031054CF409
:10074000FD01022E02C0EE0FFF1F0A94E2F76E2B8E
:100750000EC0F9013897FB8FEA8FFD010A8C02C0A9
:10076000EE0FFF1F0A94E2F7FB8FEA8F3E2A0196F5
:100770002E5F3F4F4E5F5F4F8730910509F0BBCF33
:10078000F3016083F4013082F3016183F40131826B
:100790007F5FF2E06F0E711C22E0820E911C3FEF32
:1007A000431A530A763009F097CF698D822DD9D23A
:1007B000CED2F70181917F01D0D2EC14FD04C9F7AC
:1007C000CED2698D81E0820DCCD2C1D27E01F9E119
:1007D000EF0EF11CF80181918F01BFD20E151F059C
:1007E000C9F7BDD26B960FB6F894DEBF0FBECDBF72
:1007F000DF91CF911F910F91FF90EF90DF90CF90FD
:10080000BF90AF909F908F907F906F905F904F9030
:100810003F902F900895FF920F931F93CF93DF93F4
:10082000FC01D62FC42F8081882399F08F010F5FA0
:100830001F4F0F2EF8E7FF2EF02DF40E4C2F6D2FCB
:100840000EDFC45FF80181918F01882311F0CF1171
:10085000F5CFDF91CF911F910F91FF9008950F93E6
:100860001F93CF93DF93D82F90E08C010E5F1F4F23
:10087000801791078CF460E08D2F73D268D2C0E0AE
:1008800080E06BD2CF5FC038D9F769D2DF5F8D2FA0
:1008900090E0801791077CF3DF91CF911F910F912A
:1008A00008950F931F93CF93DF9310E001E060E072
:1008B000812F57D24CD2D02F1111D0E08D2F8068CC
:1008C000173009F4D82FC0E0CC2379F0CF3751F09E
:1008D0008D2F43D2CF5FC038B9F741D21F5F183098
:1008E00031F707C08FEF39D2F8CF8FEF36D2CF5F15
:1008F000EBCFDF91CF911F910F910895FC012081E3
:10090000222349F0319690E09F5F8191882321F066
:100910009A30D1F701C090E0892F880F890F880F96
:10092000880F0895109259012AD240E060E086E3D2
:1009300091E071DF40E064E08DE391E06CCF0895D9
:10094000423008F446C0853608F084E6843651F417
:10095000453060F181E3FB01808380E38183828302
:1009600023E025C08A3060F09DEC899F912D1124F1
:10097000969596959695905DFB01908391E001C0C8
:1009800090E021E0290FFB01E90FF11D9DEC899F0B
:10099000912D1124969596959695990F392F330F91
:1009A000330F930F891B805D808301C020E0822F6D
:1009B00090E050E0415051098417950734F4FB0151
:1009C000E20FF11D85E280832F5FFB01E20FF11D35
:1009D00010820895CF93DF9300D000D01F92CDB73F
:1009E000DEB710925901E0915B01F0E0E053FE4F59
:1009F00045E0BE016F5F7F4F8081A2DFC0D1809153
:100A00005B012BE0829FC001112440E060E08A522C
:100A10009E4F01DF40E064E0CE010196FCDE0F90C6
:100A20000F900F900F900F90DF91CF910895CF937B
:100A300080915B012BE0829FC00111248A529E4F5E
:100A40005DDF91E090935901882364F020E830E065
:100A5000A901481B510912F44F5F5F4F5595479507
:100A6000C42F01C0C4E08BD11CDF80915B015BE02F
:100A7000859FC00111244C2F63E08A529E4FCBDE2C
:100A8000CF9108955AD2811109C080915A018823CB
:100A900029F010925A011092580144CF0895F89409
:100AA0006ED140E060E085E491E0B5DE40E064E0D6
:100AB0008CE491E0B0DE48D22FEF81EE94E021503B
:100AC00080409040E1F700C000000FB6F894A89570
:100AD00080916000886180936000109260000FBE7A
:100AE000E0E0F0E709950895EF92FF920F931F93CE
:100AF000CF93DF93CDB7DEB72E970FB6F894DEBF56
:100B00000FBECDBF19821A821B820BE09E012C5FA3
:100B10003F4FAE014D5F5F4FBE016E5F7F4FCE0115
:100B2000019653D2882309F4A1C0E9818E2F90E069
:100B3000FC013197EA30F10508F098C0E258FF4F08
:100B40000C94F61080E08BDE40E060E0CE0104966D
:100B500062DE8CC084E083DE40E064E0CE01049677
:100B60005ADE84C01A81163008F080C0E12EF12CC4
:100B70002BE02E9DC0012F9D900D11248A529E4F77
:100B8000FC0111922A95E9F74AE050E0BE016C5F42
:100B90007F4F0E941911F701E053FE4F8B81808334
:100BA00081E090E0012E02C0880F991F0A94E2F7BD
:100BB00090915801892B8093580190915A0191117D
:100BC00050C08F3309F052C081E080935A0149C070
:100BD00080915901882311F02ADF48C0FBDE46C00E
:100BE00080915A01882309F441C08A81863008F037
:100BF0003DC080935B018B81882311F018DF36C0E4
:100C0000E9DE34C080915A01882381F18A818630DF
:100C100068F5E82FF0E0E053FE4F9B8190839091C0
:100C20005B01891323C080915901882311F0FFDEF5
:100C30001DC0D0DE1BC010925901A1D017C081E0A9
:100C400080935A0110925801109259010FC01092CE
:100C50005A01109259011092580164DE07C01FDF3B
:100C600005C080915B01181709F4B2CF2E960FB61C
:100C7000F894DEBF0FBECDBFDF91CF911F910F91D2
:100C8000FF90EF900895CF93DF93F89480915E01E9
:100C9000882321F010925E0181E001C080E0C091C4
:100CA0005F01D09160011092600110925F01789411
:100CB000811150D1C038D1053CF08FE75BD1CF57BF
:100CC000D109C038D105CCF7C1388FEFD80744F42B
:100CD00081E850D1C158DF4FC1388FEFD807C4F336
:100CE000209711F08C2F46D1DF91CF91089584B7D2
:100CF000877F84BF0FB6F894A895809160008861C3
:100D000080936000109260000FBE5BDB2FEF81EEDE
:100D100094E0215080409040E1F700C0000043D0B3
:100D20002ED070DBFFDDCDD0C9DB789400D1AADEF8
:100D3000AADFDADEFBCFCF93C82F4CDB88E757DB87
:100D400080E055DB8C2F53DB4EDBCF91089542DBE7
:100D500088E74DDB80E44BCB089549CB089543CB26
:100D60000895CF93C62F806BE6DF8C2F8F70E3DF63
:100D70008C2F82958F708061DEDFCF910895CF93A5
:100D8000DF93D0E060E08D2FECDFE1DFC0E080E0BA
:100D90002EDBCF5FC038D9F726DBDF5FD83091F785
:100DA000DF91CF9108952FEF81EE94E021508040A4
:100DB0009040E1F700C000008EEABDDF85EDBBDFAB
:100DC00080E8B9DF88EAB7DF8FE3B5DF83EDB3DF13
:100DD00080E0B1DF80E4AFDF8DE8ADDF84E1ABDF41
:100DE00080E2A9DF82E0A7DF81EAA5DF88ECA3DF4C
:100DF0008AEDA1DF82E19FDF81E89DDF8FE79BDF46
:100E000089ED99DF81EF97DF8BED95DF80E493DF4C
:100E100084EA91DF86EA8FDF8EE28DDF8FEA8BDF57
:100E2000AECF0895292F332723303105C9F038F488
:100E30002130310559F02230310569F035C02132B9
:100E4000310541F12232310551F12EC082E190E0AD
:100E50002FEB32E032C082E290E02DE932E02DC08B
:100E600099278130910551F018F0029769F021C05F
:100E7000E9E9F2E0849190E09F011FC0E5E8F2E02B
:100E8000849190E09F0119C0E1E4F2E0849190E048
:100E90009F0113C089E090E02FEA32E00EC080E2AB
:100EA00090E021ED32E009C080E090E020E030E009
:100EB00004C080E090E020E030E0FA01318320833C
:100EC000089584B7877F84BF0FB6F894A895809162
:100ED0006000886180936000109260000FBE90E017
:100EE00080E80FB6F89480936100909361000FBE84
:100EF00080E2E0E9F1E0DF01982F1D929A95E9F791
:100F0000E0E7F1E0DF011D928A95E9F78BE0E1E689
:100F1000F1E0DF011D928A95E9F710926F011092BE
:100F20006E0110926D0110926C01DEC4089581E093
:100F300091E00E94381025C7089590911C0281E02D
:100F4000943009F080E00895E0EEF0E08081816067
:100F50008083089580916C018F5F80936C01E0E93C
:100F6000F1E090E2DF011D929A95E9F791E8908314
:100F700081830895882381F090916C019F5F909305
:100F80006C01E0E9F1E020E2DF011D922A95E9F72A
:100F900022E8208391838283089580916C018F5F82
:100FA00080936C01E0E9F1E090E2DF011D929A95F7
:100FB000E9F793E8908381834EE150E061E571E0C9
:100FC00082E991E00C94191108950F931F93CF9328
:100FD000DF93FC0180916F01882319F18083809158
:100FE0006E01FB01808380916D01FA0180832115E0
:100FF0003105A1F0002391F09FEF900F9B3008F096
:101000009AE0E901092F10E0A80161E671E0C90149
:101010000E940911FE01E00FF11F108210926F0172
:1010200081E0DF91CF911F910F91089581E091E0D0
:101030000E942410E2EEF0E0808184608083ADCFD6
:10104000089581E091E0B7C6089580910F019091D5
:101050001001009729F001979093100180930F01E0
:1010600008950F931F9380E2E0E9F1E0D901019028
:101070000D928A95E1F780E290E0F80191838083F8
:1010800080E01F910F9108950F931F93CF93DF93EB
:101090000132110510F000E210E0C02F80E2E0E71D
:1010A000F1E0DF011D928A95E9F7A8015527B90102
:1010B000CF010E940911002309F4D7C020917001CB
:1010C000822F90E0FC013197EA30F10508F0CDC0A5
:1010D000E857FF4F0C94F61020936F0110926E01A9
:1010E00010926D018BE0E1E6F1E0DF011D928A953F
:1010F000E9F7023008F4B9C08091710181119AC0FA
:10110000B4C0CE17DF0709F4B0C09191992309F458
:10111000ACC09D93E217F307A1F7A7C0033008F412
:10112000A4C080917101863008F09FC094E0909334
:101130006F0180936E0180917201853608F084E61C
:1011400080936D018BE0E1E6F1E0DF011D928A956D
:10115000E9F7C43008F489C080917301811177C028
:1011600084C0E817F90709F480C02191222309F40B
:101170007CC02D93E417F507A1F777C0023008F47F
:1011800074C080917101863008F06FC095E0909333
:101190006F0180936E01033038F081E0909172010D
:1011A000911103C080E001C080E080936D018BE06D
:1011B000E1E6F1E0DF011D928A95E9F756C00330C0
:1011C00008F453C080917101863008F04EC096E05B
:1011D00090936F0180936E0180917201853608F0C3
:1011E00084E680936D018BE0E1E6F1E0DF011D9282
:1011F0008A95E9F73AC0D1DE38C020936F0110928A
:101200006E0110926D018BE0E1E6F1E0DF011D92CD
:101210008A95E9F72AC088E080936F0110926E01E9
:1012200010926D018BE0E1E6F1E0DF011D928A95FD
:10123000E9F71BC080936101A2E6B1E0E2E7F1E0CB
:10124000C250D0E0CE58DE4F2BE731E05ACF80932A
:101250006101A2E6B1E0E4E7F1E0C4508C2F90E038
:101260008C589E4F4DE751E07CCFDF91CF911F917D
:101270000F9108958F929F92BF92CF92DF92EF923B
:10128000FF920F931F93CF93DF93873070F126C0A7
:10129000292F2F70E7012883891731F0E801788121
:1012A0002081E401588103C0242F762F5B2D21FF7C
:1012B00012C03C913E7F3C9330813D7F30833C9116
:1012C00031603C93E80178832083E4015883E60190
:1012D0002881222344F49F5F9730D1F68F7080934A
:1012E000E90081E021C080E01FC0982F9F7090939B
:1012F000E900982F242F762F50E0ABEEB0E0EDEE12
:10130000F0E00CEE10E00F2EF0EF8F2E912CF02D70
:101310000F2EFEEECF2ED12CF02D0F2EF9EEEF2E4C
:10132000F12CF02DB12CC3CFDF91CF911F910F91F4
:10133000FF90EF90DF90CF90BF909F908F90089597
:10134000EF92FF920F931F93CF93DF936623E9F100
:10135000062FC82FD92F10E00F2EF6E0FF2EF02D0C
:101360006894EE24E1F85881552349F19C81E98184
:10137000FA816B81852F8F70873048F5923010F499
:101380004E2D01C04F2DE930F10550F028E030E03E
:1013900090E09F5F220F331F2E173F07D0F301C04D
:1013A00090E09295907F492B90E4699FB0011124C1
:1013B000551F5527551F652B5DDF882349F01F5F9B
:1013C00025960113D0CF81E003C081E001C080E009
:1013D000DF91CF911F910F91FF90EF900895809131
:1013E0001D02882344F0E8EEF0E014C080911C0256
:1013F000811103C00895E8EEF0E0808182FFF6CF0E
:10140000E8EEF0E080818B778083089580911C0264
:10141000882341F0808180FFF9CFE8EEF0E0808101
:101420008E77808308950F931F93CF93DF9320913E
:10143000E4003091E50065E6ACEEB0E0E8EEF0E007
:101440000BEE10E044EE50E001C09C019C91892F0E
:10145000817090FD1DC020C080911C02882381F006
:10146000853081F0E801888185FD0EC0EA01888120
:1014700099812817390751F3615039F784E00FC07B
:1014800082E00DC083E00BC081E009C080E007C0AE
:10149000808180FFE1CFFACF908192FFDDCFDF9195
:1014A000CF911F910F9108958F929F92AF92BF920B
:1014B000CF92DF92EF92FF920F931F93CF93DF9320
:1014C0008C01EB015A01AFDF81113EC0A114B104C0
:1014D00039F0F50180819181C81BD90B080F191FC4
:1014E000209789F1E12CF12C0F2EF8EE8F2E912C04
:1014F000F02D0F2EF1EFCF2ED12CF02DF4018081A5
:1015000085FD14C080818E7780833BD4A114B10403
:1015100049F0F50180819181E80EF91EF182E082A7
:1015200085E012C080DF882351F00EC0F801819160
:101530008F01F60180832197FFEFEF1AFF0A2097B2
:10154000E9F680E001C080E0DF91CF911F910F911B
:10155000FF90EF90DF90CF90BF90AF909F908F90D3
:101560000895CF92DF92FF920F931F93CF93DF9353
:1015700020912302309124022617370758F0611575
:10158000710539F4E8EEF0E020812E7720839B018D
:1015900001C09B01A82FB92F10E0E8EEF0E063EF47
:1015A00070E042EF50E00F2EF1EFCF2ED12CF02D56
:1015B00001E0F12C30C080911C02882309F442C064
:1015C000853009F441C0808183FD40C0808182FD67
:1015D00032C0808180FF1FC0EB011881EA01888141
:1015E00090E0912B2115310579F08830910560F458
:1015F0001D91E6011883215031090196211531050D
:1016000019F088309105A1F7102F089709F01F2DC8
:1016100080818E7780832115310569F61111CBCF3A
:101620000AC080911C02882399F0853099F080814E
:1016300083FF03C011C0E8EEF0E0808182FFF1CFAC
:1016400080E00BC082E009C083E007C081E005C0F4
:1016500082E003C083E001C081E0DF91CF911F9160
:101660000F91FF90DF90CF900895EF92FF921F931C
:10167000CF93DF936115710551F5E8EEF0E08081BD
:101680008B77808345C080911C02882309F447C072
:10169000853009F446C0808183FD45C0808182FF8A
:1016A000F2CF4DC0EA0188818D936150710941F0FC
:1016B000E9011881E701888190E0912B892B91F74E
:1016C00080818B7780836115710571F421C0A82F0B
:1016D000B92FE8EEF0E023EF30E00F2EF2EFEF2E1F
:1016E000F12CF02D41EF50E080911C028823E9F0AD
:1016F0008530E9F0808183FD1CC0808182FD1FC0A0
:10170000C2CF80911C028823B1F0853019F415C036
:10171000E8EEF0E0808180FFF4CF80E01AC082E044
:1017200018C083E016C081E014C082E012C083E0DC
:1017300010C081E00EC082E00CC083E00AC0E90165
:101740001881E701888190E0912B892B09F0AACFBD
:10175000B7CFDF91CF911F91FF90EF900895CF9277
:10176000DF92FF920F931F93CF93DF932091230279
:10177000309124022617370758F06115710539F4A6
:10178000E8EEF0E020812E7720839B0101C09B01D1
:10179000E82FF92F10E0A8EEB0E063EF70E042EF21
:1017A00050E00F2EF1EFCF2ED12CF02D01E0F12CD7
:1017B00031C080911C02882309F443C0853009F4AC
:1017C00042C08C9183FD41C08C9182FD33C08C91CD
:1017D00080FF20C0EB011881EA01888190E0912B05
:1017E0002115310581F08830910568F41491E601E6
:1017F000188331962150310901962115310519F0D0
:101800008830910599F7102F089709F01F2D8C91BA
:101810008E778C932115310561F61111CACF0AC05C
:1018200080911C02882399F0853099F0808183FF94
:1018300003C011C0E8EEF0E0808182FFF1CF80E0CC
:101840000BC082E009C083E007C081E005C082E0F0
:1018500003C083E001C081E0DF91CF911F910F9120
:10186000FF90DF90CF9008950F931F93CF93DF9356
:101870004CD053D0C8EDD0E088818F7788838881A1
:101880008068888388818F7D888319BC10921C02B0
:101890001092180210921A021092190200EE10E033
:1018A000F80180818B7F808388818160888342E01A
:1018B00060E080E0DFDCE1EEF0E080818E7F80831D
:1018C000E2EEF0E0808181608083808188608083A7
:1018D000F80180818E7F8083888180618883DF9199
:1018E000CF911F910F910895E8EDF0E080818F7EF8
:1018F0008083E7EDF0E080818160808384E082BFB7
:1019000081E080931B02B0CF0895E8EDF0E0808184
:101910008E7F80831092E20008951092DA00109278
:10192000E10008951F920F920FB60F9211242F938A
:101930003F934F935F936F937F938F939F93AF9357
:10194000BF93EF93FF938091E10082FF0AC08091E3
:10195000E20082FF06C0E1EEF0E080818B7F8083B1
:1019600074DB8091DA0080FF1DC08091D80080FF79
:1019700019C0EAEDF0E080818E7F80838091D900EC
:1019800080FF0CC080E189BD82E189BD09B400FE01
:10199000FDCF81E080931C02F3D104C019BC1092EA
:1019A0001C02EED18091E10080FF16C08091E20020
:1019B00080FF12C0E2EEF0E080818E7F8083808124
:1019C00080618083E8EDF0E080818062808319BCD3
:1019D00085E080931C02D4D18091E10084FF2FC068
:1019E0008091E20084FF2BC080E189BD82E189BD46
:1019F00009B400FEFDCFE8EDF0E080818F7D8083AB
:101A0000E1EEF0E080818F7E8083E2EEF0E0808185
:101A10008F7E8083808181608083809118028823FB
:101A200021F084E080931C0209C08091E3008823A8
:101A300014F081E001C083E080931C02A1D1809169
:101A4000E10083FF1EC08091E20083FF1AC0E1EE37
:101A5000F0E08081877F808382E080931C02109277
:101A6000180280818E7F8083E2EEF0E080818E7F9D
:101A7000808380818061808342E060E080E0FADBE7
:101A80007FD1FF91EF91BF91AF919F918F917F9106
:101A90006F915F914F913F912F910F900FBE0F90DB
:101AA0001F9018950F931F93CF93DF93CDB7DEB799
:101AB000AA970FB6F894DEBF0FBECDBFEDE1F2E0FE
:101AC00025E232E0A1EFB0E08C9181932E173F0721
:101AD000D9F7B7DA8091E80083FF2DC1EDE1F2E09C
:101AE00020813181832F90E08A30910508F023C155
:101AF000FC01EE56FF4F7AC3203821F0223809F05E
:101B00001AC108C08091190290911A02992389F094
:101B100082600FC0809121028F70873008F00BC166
:101B2000E9EEF0E080838091EB0085FB882780F967
:101B30001082E8EEF0E09081977F9083A1EFB0E013
:101B40008C931C9280818E77808349DCF4C02223A1
:101B500009F400C1223009F0EEC001C181E0333048
:101B600009F080E080931A022CC0809121028F70CE
:101B70009FEF980F963008F0DEC08093E9009091B7
:101B8000EB0090FF1EC090911E02933031F4EBEEFB
:101B9000F0E080818062808314C0EBEEF0E0908101
:101BA0009061908321E030E0A90102C0440F551FED
:101BB0008A95E2F7AAEEB0E04C931C92808188608F
:101BC00080831092E900E8EEF0E08081877F8083D7
:101BD00006DCB1C02111AFC010911F021F77E3EEE8
:101BE000F0E080818078812B8083E8EEF0E08081D6
:101BF000877F8083F4DBE8EEF0E0808180FFFDCF1B
:101C0000E3EEF0E0808180688083111102C082E001
:101C100001C083E080931C028EC02058223008F05F
:101C20008AC080911F02909120028C3D53E095075D
:101C300099F583E08A838AE289835FB7F894DE01AD
:101C4000139620E03EE041E2E32FF0E0409357009E
:101C5000849120FF03C082958F703F5F8F708A3020
:101C600018F090E0C79602C090E0C0968D939D93C7
:101C70002F5F243149F75FBF08EE10E0F801808143
:101C8000877F80836AE270E0CE0101966ADCF8010A
:101C900080818B7780834FC06091210270912202F6
:101CA000AE014F5F5F4FBED8BC01892B09F443C022
:101CB00008EE10E0F8019081977F908389819A81E6
:101CC0004EDDF80180818B77808335C0203899F50F
:101CD000E8EEF0E08081877F808380911802809316
:101CE000F10080818E7780837ADB25C0211123C0AB
:101CF00080911F029091200299270297E4F4E8EE68
:101D0000F0E08081877F808380911F02809318029A
:101D100066DB80911802882321F084E080931C0206
:101D200009C08091E300882314F081E001C084E0C1
:101D300080931C027BD98091E80083FF16C0E8EEF7
:101D4000F0E08081877F8083EBEEF0E0808180622D
:101D500080830BC080911F02813069F7FFCE809194
:101D60001F02882309F401CF2CCFAA960FB6F8944E
:101D7000DEBF0FBECDBFDF91CF911F910F910895B0
:101D80000895CF9380911C02882399F0C091E900B7
:101D9000CF708091EC00982F917080FD90E8C92B56
:101DA0001092E9008091E80083FD7CDECF70C09343
:101DB000E900CF9108953F924F925F926F927F9288
:101DC0008F929F92AF92BF92CF92DF92EF92FF924B
:101DD0000F931F93CF93DF9300D01F92CDB7DEB741
:101DE0006C01EDB6FEB68091E80083FF13C1F601E9
:101DF000808190E02091210230912202281739073A
:101E000009F008C180911E02833009F4A0C030F4AB
:101E1000813071F0823009F4E2C0FCC08A3009F4EC
:101E2000C2C08B3009F4ABC0893009F0F3C051C097
:101E300080911D02813A09F0EDC0ADB6BEB61A829E
:101E40001982EDE1F2E0828113818B83F6018085B6
:101E5000482F50E08DB79EB7841B950B0FB6F894B2
:101E60009EBF0FBE8DBFEDB7FEB731964F0160E04C
:101E700070E0CF01D7D14FEF410F8E010F5F1F4FA1
:101E80009401BE016D5F7F4FC601EBD8F6018681DC
:101E90009781009721F0408550E0B401BAD11092AB
:101EA000E900E8EEF0E08081877F80838B818111FB
:101EB0008093F10069817A81C40153DBE8EEF0E0A0
:101EC00080818B7780830FB6F894BEBE0FBEADBE07
:101ED000A1C080911D02813209F09CC06DB67EB612
:101EE000EDE1F2E006811781528043808DB79EB705
:101EF000801B910B0FB6F8949EBF0FBE8DBFEDB740
:101F0000FEB731964F010F2EF8EEAF2EB12CF02D0B
:101F1000F5018081877F8083B801C401A6DBF501CC
:101F200080818E77808321E0511001C020E030E075
:101F3000021B130B280D391D4FEF440D652DC601F3
:101F4000A3D80FB6F8947EBE0FBE6DBE63C080915D
:101F50001D02813A09F05EC0E8EEF0E08081877FE3
:101F60008083808180FFFDCFF60181858093F10021
:101F7000E8EEF0E080818E77808331DA4BC080918B
:101F80001D02813209F046C0E8EEF0E08081877FD3
:101F9000808325DA90911F0281E0911101C080E0D9
:101FA000F601818737C080911D02813299F5E8EEF4
:101FB000F0E08081877F808312DA80911F02909108
:101FC000200288270024880F991F001C880F991F62
:101FD000001C892F902DF601958784871BC0809166
:101FE0001D02813AB9F4E8EEF0E08081877F8083BA
:101FF000808180FFFDCFF601848595859695879534
:10200000969587958093F100E8EEF0E080818E77D9
:102010008083E5D90FB6F894FEBE0FBEEDBE0F90DB
:102020000F900F90DF91CF911F910F91FF90EF9044
:10203000DF90CF90BF90AF909F908F907F906F90E8
:102040005F904F903F900895FC01399627E0DF01A3
:102050001D922A95E9F721E0FC01218724EF31E068
:102060003587248723E0248361E0019669C90895B8
:102070005F926F927F928F929F92AF92BF92CF9218
:10208000DF92EF92FF920F931F93CF93DF9300D0D5
:102090001F92CDB7DEB77C01ADB6BEB680911C02F3
:1020A000843009F08BC08091E4009091E500F70145
:1020B000228533852817390709F480C081818F7004
:1020C0008093E9008091E80085FF78C08DB69EB6C8
:1020D000408550E08DB79EB7841B950B0FB6F894E2
:1020E0009EBF0FBE8DBFEDB7FEB731966F011B824D
:1020F0001A82198260E070E0CF0194D08E010F5FE8
:102100001F4F960140E0BE016D5F7F4FC7010E94E7
:102110003108582EF70184859585892B41F081E09F
:1021200026853785232B09F080E0782E01C0712C9D
:10213000F701068117810115110589F049815A813E
:10214000B801C60159D066246394892B09F4612C27
:10215000F701408550E0B601C8015BD001C0612C99
:1021600089819A81892BF1F0511004C0611002C05D
:1021700070FE18C0F70184859585978786878181D1
:102180008F708093E9008B8181118093F1006981C8
:102190007A8140E050E0C60187D9E8EEF0E0808126
:1021A0008E7780838091E4009091E500F70193871A
:1021B00082870FB6F8949EBE0FBE8DBE0FB6F89400
:1021C000BEBE0FBEADBE0F900F900F90DF91CF91AE
:1021D0001F910F91FF90EF90DF90CF90BF90AF9045
:1021E0009F908F907F906F905F900895EE0FFF1FEC
:1021F0000590F491E02D0994FB01DC0104C08D9160
:102200000190801921F441505040C8F7881B990B68
:102210000895FB01DC0102C001900D924150504035
:10222000D8F70895DC0101C06D9341505040E0F7AC
:102230000895FB01DC014150504048F001900D929F
:102240000020C9F701C01D9241505040E0F70895A9
:04225000F894FFCF30
:1022540001008120000001B0012000000000000006
:10226400004D6173746572004170702031004170DB
:1022740070203200417070203300417070203400AF
:102284004170702035004E4F204150500057414955
:1022940054494E4700555044415445004D4F444520
:0822A40000302E312E33000042
:00000001FF
